:020000040000FA
:100000000C9462000C948A000C948A000C948A0070
:100010000C948A000C948A000C948A000C948A0038
:100020000C948A000C948A000C948A000C940C04A2
:100030000C948A000C948A000C948A000C948A0018
:100040000C94C2030C948A000C9490030C946A03E1
:100050000C948A000C948A000C948A000C948A00F8
:100060000C948A000C948A000000000024002700F1
:100070002A0000000000250028002B0000000000DE
:1000800023002600290004040404040404040202DA
:100090000202020203030303030301020408102007
:1000A0004080010204081020010204081020000012
:1000B0000008000201000003040700000000000027
:1000C0000000C80411241FBECFEFD8E0DEBFCDBFB3
:1000D00011E0A0E0B1E0E2E9F3E102C005900D9289
:1000E000AE31B107D9F721E0AEE1B1E001C01D9218
:1000F000A13FB207E1F710E0C2E6D0E004C02197CB
:10010000FE010E94C109C136D107C9F70E94250529
:100110000C94C7090C9400008F929F92AF92BF92EB
:10012000FF920F931F93CF93DF93F090EE012BE09C
:100130002F1508F44CC02091F00108E512E0021BD5
:10014000110927FD1395000F111F000F111F20919A
:10015000EF01C8E8D0E0C21BD10927FDD395CC0F31
:10016000DD1FCC0FDD1F4E010D2E000CAA08BB08B1
:100170009801012E000C440B550B281939094A0926
:100180005B09DC010E94B20724EB30E040E050E064
:100190000E948807820E931EA41EB51E8C169D0613
:1001A0002CF0E801801691060CF4E4012297CC0FA4
:1001B000DD1F2FB7F8948F2D90E0FC01EE0FFF1F8D
:1001C000E80FF91FE753FE4FD283C1832FBFDF91A2
:1001D000CF911F910F91FF90BF90AF909F908F9004
:1001E0000895AF92BF92CF92DF92EF92FF920F935A
:1001F0001F93CF93DF936C017B018B01040F151FBD
:10020000EB015E01AE18BF08C017D10759F0699124
:10021000D601ED91FC910190F081E02DC601099588
:10022000892B79F7C501DF91CF911F910F91FF9035
:10023000EF90DF90CF90BF90AF900895FC01538D69
:10024000448D252F30E0842F90E0821B930B5417B0
:1002500010F0CF96089501970895FC01918D828D3D
:10026000981761F0A28DAE0FBF2FB11D5D968C91D6
:10027000928D9F5F9F73928F90E008958FEF9FEF15
:100280000895FC01918D828D981731F0828DE80FD1
:10029000F11D858D90E008958FEF9FEF0895FC018B
:1002A000918D228D892F90E0805C9F4F821B910958
:1002B0008F73992708958CE291E00E944F0121E00D
:1002C000892B09F420E0822F089580E090E0892BAB
:1002D00029F00E945B0181110C9400000895FC013B
:1002E000A48DA80FB92FB11DA35ABF4F2C91848D97
:1002F00090E001968F739927848FA689B7892C93F4
:10030000A089B1898C91837080648C93938D848D46
:10031000981306C00288F389E02D80818F7D808349
:100320000895EF92FF920F931F93CF93DF93EC0109
:1003300081E0888F9B8D8C8D98131AC0E889F9898C
:10034000808185FF15C09FB7F894EE89FF8960838F
:10035000E889F98980818370806480839FBF81E010
:1003600090E0DF91CF911F910F91FF90EF90089552
:10037000F62E0B8D10E00F5F1F4F0F731127E02E2D
:100380008C8D8E110CC00FB607FCFACFE889F98965
:10039000808185FFF5CFCE010E946F01F1CFEB8DFB
:1003A000EC0FFD2FF11DE35AFF4FF0829FB7F89439
:1003B0000B8FEA89FB8980818062CFCFCF93DF9357
:1003C000EC01888D8823B9F0AA89BB89E889F9896D
:1003D0008C9185FD03C0808186FD0DC00FB607FCA2
:1003E000F7CF8C9185FFF2CF808185FFEDCFCE01D5
:1003F0000E946F01E9CFDF91CF910895833081F0A2
:1004000028F4813099F08230A9F008958730A9F05E
:100410008830C9F08430B1F4809180008F7D03C0B2
:10042000809180008F7780938000089584B58F77C6
:1004300084BD089584B58F7DFBCF8091B0008F7708
:100440008093B00008958091B0008F7DF9CFCF9355
:10045000DF93282F30E0F901E255FF4F8491F90135
:10046000E656FF4FD491F901EA57FF4FC491CC23D0
:10047000A1F081110E94FE01EC2FF0E0EE0FFF1FB2
:10048000E458FF4FA591B491EC91ED2381E090E009
:1004900009F480E0DF91CF91089580E090E0FACFF9
:1004A0001F93CF93DF93282F30E0F901E255FF4FE0
:1004B0008491F901E656FF4FD491F901EA57FF4FB5
:1004C000C491CC23A9F0162F81110E94FE01EC2FBC
:1004D000F0E0EE0FFF1FEE58FF4FA591B4918FB7DC
:1004E000F894EC91111108C0D095DE23DC938FBFF6
:1004F000DF91CF911F910895DE2BF8CFCF93DF933B
:1005000090E0FC01E656FF4F24918A579F4FFC0173
:1005100084918823D1F090E0880F991FFC01E8595D
:10052000FF4FA591B491FC01EE58FF4FC591D491B6
:1005300061110EC09FB7F8948C91E22FE0958E2345
:100540008C932881E223E8839FBFDF91CF910895A8
:100550008FB7F894EC91E22BEC938FBFF6CF8E30EF
:1005600008F08E508770806480937C0080917A00C0
:10057000806480937A0080917A0086FDFCCF809120
:1005800078009091790008953FB7F8948091240104
:1005900090912501A0912601B091270126B5A89B35
:1005A00005C02F3F19F00196A11DB11D3FBFBA2F05
:1005B000A92F982F8827BC01CD01620F711D811DC5
:1005C000911D42E0660F771F881F991F4A95D1F74A
:1005D0000895FC0101900020E9F73197AF01481B15
:1005E000590BBC018CE291E00C94F1008F929F9228
:1005F000AF92BF920F931F93CF93DF93CDB7DEB728
:10060000A1970FB6F894DEBF0FBECDBF19A242303E
:1006100008F44AE08E010F5D1F4F842E912CB12CFF
:10062000A12CA50194010E94BA07E62FB901CA01C5
:10063000EA30F4F4E05DD801EE938D01232B242BF6
:10064000252B79F790E080E0109719F0CD010E94FA
:10065000E902A1960FB6F894DEBF0FBECDBFDF91C1
:10066000CF911F910F91BF90AF909F908F90089561
:10067000E95CE1CFCF92DF92EF92FF92CF93DF93CD
:100680006C01990FEE08FF08F7FE19C06DE28CE2CD
:1006900091E00E949101EC0166277727CB016C194C
:1006A0007D098E099F094AE00E94F6028C0F9D1F6A
:1006B000DF91CF91FF90EF90DF90CF9008954AE0C7
:1006C000C701B601DF91CF91FF90EF90DF90CF90FF
:1006D0000C94F6021F920F920FB60F9211242F93D3
:1006E0003F934F935F936F937F938F939F93AF93BA
:1006F000BF93EF93FF938CE291E00E946F01FF9113
:10070000EF91BF91AF919F918F917F916F915F9189
:100710004F913F912F910F900FBE0F901F90189502
:100720001F920F920FB60F9211242F938F939F93C6
:10073000EF93FF93E0913C01F0913D018081E091C6
:100740004201F091430182FD1BC0908180914501DF
:100750008F5F8F7320914601821741F0E091450130
:10076000F0E0E45DFE4F958F80934501FF91EF919E
:100770009F918F912F910F900FBE0F901F90189502
:100780008081F4CF1F920F920FB60F9211242F93F6
:100790003F938F939F93AF93BF938091200190914C
:1007A0002101A0912201B091230130911F0123E08A
:1007B000230F2D3758F50196A11DB11D20931F0160
:1007C0008093200190932101A0932201B0932301F3
:1007D0008091240190912501A0912601B0912701DB
:1007E0000196A11DB11D8093240190932501A09332
:1007F0002601B0932701BF91AF919F918F913F91B7
:100800002F910F900FBE0F901F90189526E8230F81
:100810000296A11DB11DD2CF1F920F920FB60F925B
:1008200011242F933F934F935F936F937F938F93F5
:100830009F93AF93BF93CF93DF93EF93FF938091F9
:100840001E01C091ED01D0E087FF24C01092850009
:100850001092840080911E018F5F80931E01809111
:100860001E01082E000C990B8C179D0724F4809113
:100870001E018C30C4F18091840090918500049613
:1008800080349C4908F47AC080918400909185005E
:10089000049676C080911E01082E000C990B8C17CF
:1008A0009D07C4F6E0911E018E2FEE0F990BFC01FF
:1008B000EE0FFF1FE80FF91FE753FE4F808186FF01
:1008C000C9CFE0911E018E2FEE0F990BFC01EE0FA8
:1008D000FF1FE80FF91FE753FE4F808160E08F7321
:1008E0000E945002B7CF2091840030918500E091A2
:1008F0001E018E2FEE0F990BFC01EE0FFF1FE80F6C
:10090000F91FE753FE4F81819281820F931F9093CD
:10091000890080938800E0911E018E2FEE0F990BC5
:10092000FC01EE0FFF1FE80FF91FE753FE4F808118
:1009300086FF11C0E0911E018E2FEE0F990BFC0176
:10094000EE0FFF1FE80FF91FE753FE4F808161E0B4
:100950008F730E945002FF91EF91DF91CF91BF9171
:10096000AF919F918F917F916F915F914F913F9147
:100970002F910F900FBE0F901F90189580E49CE967
:1009800090938900809388008FEF80931E01E3CFBE
:1009900010922F0110922E0188EE93E0A0E0B0E0BB
:1009A0008093300190933101A0933201B0933301D1
:1009B00084E091E090932D0180932C0185EC90E0F0
:1009C000909339018093380184EC90E090933B013F
:1009D00080933A0180EC90E090933D0180933C013C
:1009E00081EC90E090933F0180933E0182EC90E097
:1009F000909341018093400186EC90E090934301F5
:100A000080934201109245011092460110924701D5
:100A1000109248018091ED018C3098F491E0980F8C
:100A20009093ED018093EE0190E0FC01EE0FFF1F2B
:100A3000E80FF91FE753FE4F88EB9BE09283818319
:100A400008958FEF8093EE010895789484B58260C5
:100A500084BD84B5816084BD85B5826085BD85B562
:100A6000816085BD80916E00816080936E001092E0
:100A7000810080918100826080938100809181005B
:100A800081608093810080918000816080938000EC
:100A90008091B10084608093B1008091B00081604A
:100AA0008093B00080917A00846080937A00809176
:100AB0007A00826080937A0080917A0081608093CE
:100AC0007A0080917A00806880937A001092C10049
:100AD00060E083E00E947E0260E082E00E947E028D
:100AE00061E08AE00E947E0261E089E00E947E026D
:100AF00061E08BE00E947E0261E08CE00E947E0259
:100B000060E08EE00E947E0260E08FE00E947E0244
:100B10008091EE018C3008F051C061E088E00E94C5
:100B20007E028091EE01282F30E0F901EE0FFF1FC9
:100B3000E20FF31FE753FE4F9081907C9860908303
:100B40001092EF011092F0012CE0622F0E94B50983
:100B5000829FB001112430E020E0AB01420F531F0F
:100B6000FA01EE0FFF1FE40FF51FE753FE4F9081D0
:100B700096FD16C02F5F3F4F2C30310571F7811164
:100B80000FC01092800082E0809381001092850057
:100B900010928400B19A80916F00826080936F0000
:100BA000E091EE018E2F90E0FC01EE0FFF1FE80FA9
:100BB000F91FE753FE4F80818064808390E080E0DE
:100BC0000E948C0060E089E00E945002E0913C01AC
:100BD000F0913D0182E08083E0913801F09139018C
:100BE0001082E0913A01F0913B018FEC80831092EA
:100BF0004401E0914001F091410186E08083E09161
:100C00003E01F0913F01808180618083E0913E014F
:100C1000F0913F01808188608083E0913E01F091F6
:100C20003F01808180688083E0913E01F0913F0127
:100C300080818F7D8083C0E0D0E08CE291E00E94D3
:100C40004F01892B49F08CE291E00E942D01909395
:100C50002B0180932A01F1CF82E00E94AF0283E052
:100C60000E9427027C0182E00E94270221E031E0FD
:100C7000E316F10409F020E02093290121E08130FE
:100C8000910509F020E020932801EA94EF2819F05B
:100C9000019709F04DC061E089E00E94500261E0D7
:100CA0008AE00E94500284EB90E00E948C000E9437
:100CB000C4024B015C0184E6C82ED12CE12CF12C3E
:100CC0000E94C402681979098A099B09683E734029
:100CD00081059105A8F331E0C31AD108E108F108B4
:100CE00088EE880E83E0981EA11CB11CC114D104AB
:100CF000E104F10429F780912A0190912B018733B7
:100D0000910509F44CC01CF58433910581F1C69717
:100D1000D9F110922B0110922A01209709F48DCF5E
:100D20000E945B01882309F488CF0E94000085CFD0
:100D3000109229011092280160E089E00E9450027F
:100D400060E08AE00E94500290E080E0AECF8636FC
:100D5000910509F4DAC08337910509F4D2C0C89728
:100D6000C1F68FE00E94AF020E943A03D2CF61E049
:100D70008BE00E94500261E08CE00E94500260E033
:100D80008CE00E945002C5CF60E08BE00E945002D0
:100D900060E08CE00E94500260E08DE0F2CF8EE0D7
:100DA0000E94AF02BC01990F880B990B0E948E081C
:100DB00023E23BED49EF5EE30E9443096B017C01B6
:100DC0004B015C01AC019B010E94B009882329F012
:100DD00082E191E00E94E9029CCF26013701E8946C
:100DE00077F82FEF3FEF4FE75FE7C301B2010E94B3
:100DF000B00981110DC02FEF3FEF4FE75FE7C3014F
:100E0000B2010E94580818161CF486E191E0E2CF66
:100E10002FEF3FEF4FE75FE4C701B6010E943E09A5
:100E200018161CF48AE191E0D5CF2FEF3FEF4FE782
:100E30005FECC701B6010E94580887FDF3CF20E0A0
:100E400030E0A901C701B6010E94580887FF0BC016
:100E50006DE28CE291E00E94910146015701B7FAE0
:100E6000B094B7F8B0942AE037ED43EA5BE3C501EC
:100E7000B4010E94EC074B015C010E945D086B010C
:100E80007C010E948C089B01AC01C501B4010E9449
:100E9000EB074B015C014AE0C701B6010E94F60274
:100EA0006EE28CE291E00E94910120E030E040E2AD
:100EB00051E4C501B4010E9443094B015C010E9449
:100EC0005D086B01F12CE12C4AE0C701B6010E94DC
:100ED000F602C701B6010E948C089B01AC01C50156
:100EE000B4010E94EB0720E030E040E251E40E94B0
:100EF00043090E945D0890E080E04AE00E94F6020B
:100F000008CF8091280190E02FCF80912901FBCF5D
:100F1000052E97FB1EF400940E949F0757FD07D0F3
:100F20000E94BA0707FC03D04EF40C949F0750951B
:100F30004095309521953F4F4F4F5F4F08959095C5
:100F40008095709561957F4F8F4F9F4F08950E94B8
:100F5000DC07A59F900DB49F900DA49F800D911D5F
:100F600011240895B7FF0C94A7070E94A707821BBE
:100F7000930B0895A1E21A2EAA1BBB1BFD010DC005
:100F8000AA1FBB1FEE1FFF1FA217B307E407F50739
:100F900020F0A21BB30BE40BF50B661F771F881F15
:100FA000991F1A9469F760957095809590959B01AB
:100FB000AC01BD01CF010895A29FB001B39FC00154
:100FC000A39F700D811D1124911DB29F700D811D75
:100FD0001124911D08955058BB27AA270E94030889
:100FE0000C9404090E94F60838F00E94FD0820F0D5
:100FF00039F49F3F19F426F40C94F3080EF4E095AD
:10100000E7FB0C94ED08E92F0E94150958F3BA1775
:10101000620773078407950720F079F4A6F50C940E
:1010200037090EF4E0950B2EBA2FA02D0B01B90154
:1010300090010C01CA01A0011124FF27591B99F04E
:10104000593F50F4503E68F11A16F040A22F232F5A
:10105000342F4427585FF3CF469537952795A795AA
:10106000F0405395C9F77EF41F16BA0B620B730B51
:10107000840BBAF09150A1F0FF0FBB1F661F771FC2
:10108000881FC2F70EC0BA0F621F731F841F48F477
:10109000879577956795B795F7959E3F08F0B0CF00
:1010A0009395880F08F09927EE0F979587950895E7
:1010B0000E94C90808F481E008950E941D0988F083
:1010C0009F5798F0B92F9927B751B0F0E1F0660F0C
:1010D000771F881F991F1AF0BA95C9F714C0B1304D
:1010E00091F00E943709B1E008950C943709672FF9
:1010F000782F8827B85F39F0B93FCCF3869577957C
:101100006795B395D9F73EF4909580957095619564
:101110007F4F8F4F9F4F0895E89409C097FB3EF48F
:1011200090958095709561957F4F8F4F9F4F992334
:10113000A9F0F92F96E9BB279395F69587957795B2
:101140006795B795F111F8CFFAF4BB0F11F460FF72
:101150001BC06F5F7F4F8F4F9F4F16C0882311F0CA
:1011600096E911C0772321F09EE8872F762F05C0DE
:10117000662371F096E8862F70E060E02AF09A9579
:10118000660F771F881FDAF7880F9695879597F96E
:101190000895990F0008550FAA0BE0E8FEEF161608
:1011A0001706E807F907C0F012161306E407F5075B
:1011B00098F0621B730B840B950B39F40A2661F0CF
:1011C000232B242B252B21F408950A2609F4A14072
:1011D000A6958FEF811D811D089597F99F6780E87F
:1011E00070E060E008959FEF80EC089500240A9479
:1011F0001616170618060906089500240A941216F2
:101200001306140605060895092E0394000C11F424
:10121000882352F0BB0F40F4BF2B11F460FF04C0D1
:101220006F5F7F4F8F4F9F4F089557FD9058440F2A
:10123000551F59F05F3F71F04795880F97FB991F35
:1012400061F09F3F79F087950895121613061406F2
:10125000551FF2CF4695F1DF08C01616170618067F
:10126000991FF1CF86957105610508940895E8945A
:10127000BB2766277727CB0197F908950E94C908F5
:1012800008F48FEF08950E9456090C9404090E94F7
:10129000F60838F00E94FD0820F0952311F00C9418
:1012A000ED080C94F30811240C9438090E941509D8
:1012B00070F3959FC1F3950F50E0551F629FF001A9
:1012C000729FBB27F00DB11D639FAA27F00DB11DC2
:1012D000AA1F649F6627B00DA11D661F829F22274B
:1012E000B00DA11D621F739FB00DA11D621F839FD2
:1012F000A00D611D221F749F3327A00D611D231FA8
:10130000849F600D211D822F762F6A2F11249F57F5
:1013100050409AF0F1F088234AF0EE0FFF1FBB1FF8
:10132000661F771F881F91505040A9F79E3F5105B7
:1013300080F00C94ED080C9438095F3FE4F3983E7C
:10134000D4F3869577956795B795F795E7959F5F61
:10135000C1F7FE2B880F911D9695879597F90895F3
:101360000E94C908880B990B0895991B79E004C065
:10137000991F961708F0961B881F7A95C9F78095D4
:101380000895EE0FFF1F0590F491E02D0994F89455
:10139000FFCF000000009101F1001E01DE014F01AE
:1013A0002D0141016E616E00696E66006F76660008
:107E0000112484B714BE81FFF0D085E080938100F7
:107E100082E08093C00088E18093C10086E0809377
:107E2000C20080E18093C4008EE0C9D0259A86E02C
:107E300020E33CEF91E0309385002093840096BBD3
:107E4000B09BFECF1D9AA8958150A9F7CC24DD24C4
:107E500088248394B5E0AB2EA1E19A2EF3E0BF2EE7
:107E6000A2D0813461F49FD0082FAFD0023811F036
:107E7000013811F484E001C083E08DD089C08234E0
:107E800011F484E103C0853419F485E0A6D080C0E4
:107E9000853579F488D0E82EFF2485D0082F10E0AE
:107EA000102F00270E291F29000F111F8ED06801E7
:107EB0006FC0863521F484E090D080E0DECF843638
:107EC00009F040C070D06FD0082F6DD080E0C81688
:107ED00080E7D80618F4F601B7BEE895C0E0D1E017
:107EE00062D089930C17E1F7F0E0CF16F0E7DF06D8
:107EF00018F0F601B7BEE89568D007B600FCFDCFD4
:107F0000A601A0E0B1E02C9130E011968C91119780
:107F100090E0982F8827822B932B1296FA010C0160
:107F200087BEE89511244E5F5F4FF1E0A038BF0790
:107F300051F7F601A7BEE89507B600FCFDCF97BE46
:107F4000E89526C08437B1F42ED02DD0F82E2BD052
:107F50003CD0F601EF2C8F010F5F1F4F84911BD097
:107F6000EA94F801C1F70894C11CD11CFA94CF0C13
:107F7000D11C0EC0853739F428D08EE10CD085E9AC
:107F80000AD08FE07ACF813511F488E018D01DD067
:107F900080E101D065CF982F8091C00085FFFCCF94
:107FA0009093C60008958091C00087FFFCCF809118
:107FB000C00084FD01C0A8958091C6000895E0E648
:107FC000F0E098E1908380830895EDDF803219F02E
:107FD00088E0F5DFFFCF84E1DECF1F93182FE3DFCA
:107FE0001150E9F7F2DF1F91089580E0E8DFEE27F6
:047FF000FF270994CA
:027FFE00040479
:00000001FF
